{"abi":[{"type":"constructor","inputs":[],"stateMutability":"nonpayable"},{"type":"function","name":"blockNumbers","inputs":[{"name":"","type":"bytes32","internalType":"bytes32"}],"outputs":[{"name":"","type":"uint256","internalType":"uint256"}],"stateMutability":"view"},{"type":"function","name":"draw","inputs":[{"name":"blockHash","type":"bytes32","internalType":"bytes32"}],"outputs":[],"stateMutability":"nonpayable"},{"type":"function","name":"kilns","inputs":[{"name":"","type":"bytes32","internalType":"bytes32"}],"outputs":[{"name":"","type":"address","internalType":"address"}],"stateMutability":"view"},{"type":"function","name":"randomNumbers","inputs":[{"name":"","type":"bytes32","internalType":"bytes32"},{"name":"","type":"uint256","internalType":"uint256"}],"outputs":[{"name":"","type":"uint256","internalType":"uint256"}],"stateMutability":"view"},{"type":"function","name":"s_keeper","inputs":[],"outputs":[{"name":"","type":"address","internalType":"address"}],"stateMutability":"view"},{"type":"function","name":"s_lastBlockNumber","inputs":[],"outputs":[{"name":"","type":"uint256","internalType":"uint256"}],"stateMutability":"view"},{"type":"function","name":"s_owner","inputs":[],"outputs":[{"name":"","type":"address","internalType":"address"}],"stateMutability":"view"},{"type":"function","name":"setKeeper","inputs":[{"name":"_keeper","type":"address","internalType":"address"}],"outputs":[],"stateMutability":"nonpayable"},{"type":"function","name":"upKeep","inputs":[{"name":"kiln","type":"address","internalType":"address"}],"outputs":[],"stateMutability":"nonpayable"},{"type":"function","name":"upKeepMany","inputs":[{"name":"kiln","type":"address","internalType":"address"}],"outputs":[],"stateMutability":"nonpayable"}],"bytecode":{"object":"0x60c0604052600a608052600960a052348015601957600080fd5b50600180546001600160a01b0319163317905560805160a05161062d6100586000396000818161021601526102df015260006101ee015261062d6000f3fe608060405234801561001057600080fd5b506004361061009e5760003560e01c8063a9d5236811610066578063a9d5236814610152578063c6c3b5bb14610165578063e39782401461016e578063fa31d60914610181578063fecee31a1461019457600080fd5b806309e33d44146100a3578063159ed217146100d65780634547aab414610101578063629374ab1461012a578063748747e61461013f575b600080fd5b6100c36100b1366004610513565b60066020526000908152604090205481565b6040519081526020015b60405180910390f35b6000546100e9906001600160a01b031681565b6040516001600160a01b0390911681526020016100cd565b6100e961010f366004610513565b6004602052600090815260409020546001600160a01b031681565b61013d610138366004610513565b6101a7565b005b61013d61014d36600461052c565b6103b1565b61013d61016036600461052c565b61042d565b6100c360025481565b6001546100e9906001600160a01b031681565b61013d61018f36600461052c565b61045a565b6100c36101a236600461055c565b6104e2565b6000546001600160a01b031633146101da5760405162461bcd60e51b81526004016101d19061057e565b60405180910390fd5b60008181526006602052604081205461ffff7f000000000000000000000000000000000000000000000000000000000000000081169161023c917f000000000000000000000000000000000000000000000000000000000000000016906105cb565b61024691906105cb565b90508043116102ab5760405162461bcd60e51b815260206004820152602b60248201527f426c6f636b48617368447261773a206d696e20626c6f636b206e756d6265722060448201526a1b9bdd081c995858da195960aa1b60648201526084016101d1565b6000828152600460209081526040808320546005909252909120546001600160a01b039091169060ff161561034e5760005b7f000000000000000000000000000000000000000000000000000000000000000061ffff1681101561034857600061031582856105e4565b600086815260036020908152604082208054600181810183559184529190922092409201919091559190910190506102dd565b50505050565b60405163da87466560e01b8152824060048201819052906001600160a01b0383169063da87466590602401600060405180830381600087803b15801561039357600080fd5b505af11580156103a7573d6000803e3d6000fd5b5050505050505050565b6001546001600160a01b0316331461040b5760405162461bcd60e51b815260206004820152601760248201527f43616c6c6572206973206e6f7420746865206f776e657200000000000000000060448201526064016101d1565b600080546001600160a01b0319166001600160a01b0392909216919091179055565b6000546001600160a01b031633146104575760405162461bcd60e51b81526004016101d19061057e565b50565b6000546001600160a01b031633146104845760405162461bcd60e51b81526004016101d19061057e565b60006104916001436105e4565b40600090815260046020908152604080832080546001600160a01b0319166001600160a01b03969096169590951790945560058152838220805460ff19166001179055600690529190912043905550565b600360205281600052604060002081815481106104fe57600080fd5b90600052602060002001600091509150505481565b60006020828403121561052557600080fd5b5035919050565b60006020828403121561053e57600080fd5b81356001600160a01b038116811461055557600080fd5b9392505050565b6000806040838503121561056f57600080fd5b50508035926020909101359150565b60208082526018908201527f43616c6c6572206973206e6f7420746865206b65657065720000000000000000604082015260600190565b634e487b7160e01b600052601160045260246000fd5b808201808211156105de576105de6105b5565b92915050565b818103818111156105de576105de6105b556fea26469706673582212203853eee595e2655df66e10e81ecf3fd7482c0637012171827b70ee11ba67f8e764736f6c63430008190033","linkReferences":{}},"methodIdentifiers":{"blockNumbers(bytes32)":"09e33d44","draw(bytes32)":"629374ab","kilns(bytes32)":"4547aab4","randomNumbers(bytes32,uint256)":"fecee31a","s_keeper()":"159ed217","s_lastBlockNumber()":"c6c3b5bb","s_owner()":"e3978240","setKeeper(address)":"748747e6","upKeep(address)":"a9d52368","upKeepMany(address)":"fa31d609"},"id":53}