{"abi":[{"type":"constructor","inputs":[],"stateMutability":"nonpayable"},{"type":"function","name":"blockNumbers","inputs":[{"name":"","type":"address","internalType":"address"}],"outputs":[{"name":"","type":"uint256","internalType":"uint256"}],"stateMutability":"view"},{"type":"function","name":"draw","inputs":[{"name":"kiln","type":"address","internalType":"address"}],"outputs":[],"stateMutability":"nonpayable"},{"type":"function","name":"kilns","inputs":[{"name":"","type":"bytes32","internalType":"bytes32"}],"outputs":[{"name":"","type":"address","internalType":"address"}],"stateMutability":"view"},{"type":"function","name":"randomNumbers","inputs":[{"name":"","type":"bytes32","internalType":"bytes32"},{"name":"","type":"uint256","internalType":"uint256"}],"outputs":[{"name":"","type":"uint256","internalType":"uint256"}],"stateMutability":"view"},{"type":"function","name":"s_keeper","inputs":[],"outputs":[{"name":"","type":"address","internalType":"address"}],"stateMutability":"view"},{"type":"function","name":"s_lastBlockNumber","inputs":[],"outputs":[{"name":"","type":"uint256","internalType":"uint256"}],"stateMutability":"view"},{"type":"function","name":"s_owner","inputs":[],"outputs":[{"name":"","type":"address","internalType":"address"}],"stateMutability":"view"},{"type":"function","name":"setKeeper","inputs":[{"name":"_keeper","type":"address","internalType":"address"}],"outputs":[],"stateMutability":"nonpayable"},{"type":"function","name":"upKeep","inputs":[{"name":"kiln","type":"address","internalType":"address"}],"outputs":[],"stateMutability":"nonpayable"},{"type":"event","name":"StartBlock","inputs":[{"name":"startBlock","type":"uint256","indexed":false,"internalType":"uint256"}],"anonymous":false}],"bytecode":{"object":"0x60c06040526001608052600060a05234801561001a57600080fd5b50600180546001600160a01b03199081163390811790925560008054909116909117905560805160a05161055861006360003960006102290152600061020101526105586000f3fe608060405234801561001057600080fd5b50600436106100935760003560e01c8063748747e611610066578063748747e614610134578063a9d5236814610147578063c6c3b5bb1461015a578063e397824014610163578063fecee31a1461017657600080fd5b8063159ed21714610098578063182659c3146100c85780634547aab4146100f657806347a59b741461011f575b600080fd5b6000546100ab906001600160a01b031681565b6040516001600160a01b0390911681526020015b60405180910390f35b6100e86100d6366004610490565b60056020526000908152604090205481565b6040519081526020016100bf565b6100ab6101043660046104c0565b6004602052600090815260409020546001600160a01b031681565b61013261012d366004610490565b610189565b005b610132610142366004610490565b610372565b610132610155366004610490565b6103ee565b6100e860025481565b6001546100ab906001600160a01b031681565b6100e86101843660046104d9565b61045f565b6000546001600160a01b031633146101e35760405162461bcd60e51b815260206004820152601860248201527721b0b63632b91034b9903737ba103a34329035b2b2b832b960411b60448201526064015b60405180910390fd5b6001600160a01b03811660009081526005602052604081205461ffff7f000000000000000000000000000000000000000000000000000000000000000081169161024f917f000000000000000000000000000000000000000000000000000000000000000016906104fb565b61025991906104fb565b90508043116102be5760405162461bcd60e51b815260206004820152602b60248201527f426c6f636b48617368447261773a206d696e20626c6f636b206e756d6265722060448201526a1b9bdd081c995858da195960aa1b60648201526084016101da565b6040518181527fdb4a7178db447b5c775ce6797e098e3daefd405ad449e1b3e4cf15cbf3eb2c049060200160405180910390a160405163da87466560e01b81527f7624778dedc75f8b322b9fa1632a610d40b85e106c7d9bf0e743a9ce291b9c6f60048201819052906001600160a01b0384169063da87466590602401600060405180830381600087803b15801561035557600080fd5b505af1158015610369573d6000803e3d6000fd5b50505050505050565b6001546001600160a01b031633146103cc5760405162461bcd60e51b815260206004820152601760248201527f43616c6c6572206973206e6f7420746865206f776e657200000000000000000060448201526064016101da565b600080546001600160a01b0319166001600160a01b0392909216919091179055565b6000546001600160a01b031633146104435760405162461bcd60e51b815260206004820152601860248201527721b0b63632b91034b9903737ba103a34329035b2b2b832b960411b60448201526064016101da565b6001600160a01b03166000908152600560205260409020439055565b6003602052816000526040600020818154811061047b57600080fd5b90600052602060002001600091509150505481565b6000602082840312156104a257600080fd5b81356001600160a01b03811681146104b957600080fd5b9392505050565b6000602082840312156104d257600080fd5b5035919050565b600080604083850312156104ec57600080fd5b50508035926020909101359150565b8082018082111561051c57634e487b7160e01b600052601160045260246000fd5b9291505056fea2646970667358221220cd2eb8bed1a4dd23a234227a9a825bd8ecd1d0e3d2af6aeef34971e6644bb0c964736f6c63430008130033","linkReferences":{}},"methodIdentifiers":{"blockNumbers(address)":"182659c3","draw(address)":"47a59b74","kilns(bytes32)":"4547aab4","randomNumbers(bytes32,uint256)":"fecee31a","s_keeper()":"159ed217","s_lastBlockNumber()":"c6c3b5bb","s_owner()":"e3978240","setKeeper(address)":"748747e6","upKeep(address)":"a9d52368"},"id":29}