{"abi":[{"type":"constructor","inputs":[{"name":"subscriptionId","type":"uint256","internalType":"uint256"},{"name":"vrfCoordinator","type":"address","internalType":"address"},{"name":"link","type":"address","internalType":"address"},{"name":"keyHash","type":"bytes32","internalType":"bytes32"},{"name":"callbackGasLimit","type":"uint32","internalType":"uint32"}],"stateMutability":"nonpayable"},{"type":"function","name":"acceptOwnership","inputs":[],"outputs":[],"stateMutability":"nonpayable"},{"type":"function","name":"owner","inputs":[],"outputs":[{"name":"","type":"address","internalType":"address"}],"stateMutability":"view"},{"type":"function","name":"rawFulfillRandomWords","inputs":[{"name":"requestId","type":"uint256","internalType":"uint256"},{"name":"randomWords","type":"uint256[]","internalType":"uint256[]"}],"outputs":[],"stateMutability":"nonpayable"},{"type":"function","name":"requestRandomWords","inputs":[],"outputs":[{"name":"","type":"uint256","internalType":"uint256"}],"stateMutability":"nonpayable"},{"type":"function","name":"s_keeper","inputs":[],"outputs":[{"name":"","type":"address","internalType":"address"}],"stateMutability":"view"},{"type":"function","name":"s_numWords","inputs":[],"outputs":[{"name":"","type":"uint32","internalType":"uint32"}],"stateMutability":"view"},{"type":"function","name":"s_randomWords","inputs":[{"name":"","type":"uint256","internalType":"uint256"}],"outputs":[{"name":"","type":"uint256","internalType":"uint256"}],"stateMutability":"view"},{"type":"function","name":"s_requestId","inputs":[],"outputs":[{"name":"","type":"uint256","internalType":"uint256"}],"stateMutability":"view"},{"type":"function","name":"s_requestIdToIsMany","inputs":[{"name":"","type":"uint256","internalType":"uint256"}],"outputs":[{"name":"","type":"bool","internalType":"bool"}],"stateMutability":"view"},{"type":"function","name":"s_requestIdToKiln","inputs":[{"name":"","type":"uint256","internalType":"uint256"}],"outputs":[{"name":"","type":"address","internalType":"address"}],"stateMutability":"view"},{"type":"function","name":"s_requestIdToRandomWords","inputs":[{"name":"","type":"uint256","internalType":"uint256"},{"name":"","type":"uint256","internalType":"uint256"}],"outputs":[{"name":"","type":"uint256","internalType":"uint256"}],"stateMutability":"view"},{"type":"function","name":"s_vrfCoordinator","inputs":[],"outputs":[{"name":"","type":"address","internalType":"contract IVRFCoordinatorV2Plus"}],"stateMutability":"view"},{"type":"function","name":"setCallbackGasLimit","inputs":[{"name":"_callbackGasLimit","type":"uint32","internalType":"uint32"}],"outputs":[],"stateMutability":"nonpayable"},{"type":"function","name":"setCoordinator","inputs":[{"name":"_vrfCoordinator","type":"address","internalType":"address"}],"outputs":[],"stateMutability":"nonpayable"},{"type":"function","name":"setKeeper","inputs":[{"name":"_keeper","type":"address","internalType":"address"}],"outputs":[],"stateMutability":"nonpayable"},{"type":"function","name":"setNumWords","inputs":[{"name":"_numWords","type":"uint32","internalType":"uint32"}],"outputs":[],"stateMutability":"nonpayable"},{"type":"function","name":"transferOwnership","inputs":[{"name":"to","type":"address","internalType":"address"}],"outputs":[],"stateMutability":"nonpayable"},{"type":"function","name":"upKeep","inputs":[{"name":"kiln","type":"address","internalType":"address"}],"outputs":[],"stateMutability":"nonpayable"},{"type":"function","name":"upKeepMany","inputs":[{"name":"kiln","type":"address","internalType":"address"}],"outputs":[],"stateMutability":"nonpayable"},{"type":"event","name":"CoordinatorSet","inputs":[{"name":"vrfCoordinator","type":"address","indexed":false,"internalType":"address"}],"anonymous":false},{"type":"event","name":"OwnershipTransferRequested","inputs":[{"name":"from","type":"address","indexed":true,"internalType":"address"},{"name":"to","type":"address","indexed":true,"internalType":"address"}],"anonymous":false},{"type":"event","name":"OwnershipTransferred","inputs":[{"name":"from","type":"address","indexed":true,"internalType":"address"},{"name":"to","type":"address","indexed":true,"internalType":"address"}],"anonymous":false},{"type":"event","name":"ReturnedRandomness","inputs":[{"name":"randomWords","type":"uint256[]","indexed":false,"internalType":"uint256[]"}],"anonymous":false},{"type":"error","name":"OnlyCoordinatorCanFulfill","inputs":[{"name":"have","type":"address","internalType":"address"},{"name":"want","type":"address","internalType":"address"}]},{"type":"error","name":"OnlyOwnerOrCoordinator","inputs":[{"name":"have","type":"address","internalType":"address"},{"name":"owner","type":"address","internalType":"address"},{"name":"coordinator","type":"address","internalType":"address"}]},{"type":"error","name":"ZeroAddress","inputs":[]}],"bytecode":{"object":"0x6101206040526001610100526002805463ffffffff60c01b1916600960c01b17905534801561002d57600080fd5b5060405161111538038061111583398101604081905261004c9161021d565b8333806000816100a35760405162461bcd60e51b815260206004820152601860248201527f43616e6e6f7420736574206f776e657220746f207a65726f000000000000000060448201526064015b60405180910390fd5b600080546001600160a01b0319166001600160a01b03848116919091179091558116156100d3576100d381610158565b5050506001600160a01b0381166100fd5760405163d92e233d60e01b815260040160405180910390fd5b600280546001600160a01b0396871660805294861660a05260e093909352600480546001600160a01b0319163317905563ffffffff909116600160a01b026001600160c01b031990931693169290921717905560c052610281565b336001600160a01b038216036101b05760405162461bcd60e51b815260206004820152601760248201527f43616e6e6f74207472616e7366657220746f2073656c66000000000000000000604482015260640161009a565b600180546001600160a01b0319166001600160a01b0383811691821790925560008054604051929316917fed8889f560326eb138920d842192f0eb3dd22b4f139c87a2c57538e05bae12789190a350565b80516001600160a01b038116811461021857600080fd5b919050565b600080600080600060a0868803121561023557600080fd5b8551945061024560208701610201565b935061025360408701610201565b925060608601519150608086015163ffffffff8116811461027357600080fd5b809150509295509295909350565b60805160a05160c05160e05161010051610e376102de6000396000818161062b01526109b40152600081816105db01526109640152600081816105fe01526109870152600050506000818161068c0152610a170152610e376000f3fe608060405234801561001057600080fd5b50600436106101215760003560e01c80639eccacf6116100ad578063e89e106a11610071578063e89e106a14610294578063f2fde38b1461029d578063f30c07d3146102b0578063f6eaffc8146102c3578063fa31d609146102d657600080fd5b80639eccacf61461022a578063a4eb718c1461023d578063a9d5236814610250578063ce897d4014610263578063e0c862891461028c57600080fd5b806379ba5097116100f457806379ba50971461019f5780638da5cb5b146101a75780638ea98117146101b8578063967dd780146101cb5780639702546d146101f757600080fd5b8063159ed217146101265780631fe543e314610156578063748747e61461016b57806377a60e051461017e575b600080fd5b600954610139906001600160a01b031681565b6040516001600160a01b0390911681526020015b60405180910390f35b610169610164366004610bd9565b6102e9565b005b610169610179366004610ca3565b61033c565b61019161018c366004610cd3565b610366565b60405190815260200161014d565b610169610397565b6000546001600160a01b0316610139565b6101696101c6366004610ca3565b610441565b6002546101e290600160c01b900463ffffffff1681565b60405163ffffffff909116815260200161014d565b61021a610205366004610cf5565b60076020526000908152604090205460ff1681565b604051901515815260200161014d565b600254610139906001600160a01b031681565b61016961024b366004610d0e565b610533565b61016961025e366004610ca3565b610561565b610139610271366004610cf5565b6006602052600090815260409020546001600160a01b031681565b6101916105c5565b61019160085481565b6101696102ab366004610ca3565b61072e565b6101696102be366004610d0e565b610742565b6101916102d1366004610cf5565b610770565b6101696102e4366004610ca3565b610791565b6002546001600160a01b0316331461032e5760025460405163073e64fd60e21b81523360048201526001600160a01b0390911660248201526044015b60405180910390fd5b61033882826107f8565b5050565b610344610903565b600980546001600160a01b0319166001600160a01b0392909216919091179055565b6005602052816000526040600020818154811061038257600080fd5b90600052602060002001600091509150505481565b6001546001600160a01b031633146103ea5760405162461bcd60e51b815260206004820152601660248201527526bab9ba10313290383937b837b9b2b21037bbb732b960511b6044820152606401610325565b60008054336001600160a01b0319808316821784556001805490911690556040516001600160a01b0390921692909183917f8be0079c531659141344cd1fd0a4f28419497f9722a3daafe3b4186f6b6457e091a350565b6000546001600160a01b0316331480159061046757506002546001600160a01b03163314155b156104b8573361047f6000546001600160a01b031690565b60025460405163061db9c160e01b81526001600160a01b0393841660048201529183166024830152919091166044820152606401610325565b6001600160a01b0381166104df5760405163d92e233d60e01b815260040160405180910390fd5b600280546001600160a01b0319166001600160a01b0383169081179091556040519081527fd1a6a14209a385a964d036e404cb5cfb71f4000cdb03c9366292430787261be69060200160405180910390a150565b61053b610903565b6002805463ffffffff909216600160a01b0263ffffffff60a01b19909216919091179055565b6009546001600160a01b0316331461057857600080fd5b6000610582610958565b600090815260066020908152604080832080546001600160a01b0319166001600160a01b0396909616959095179094556007905291909120805460ff1916905550565b60006105cf610903565b6040805160c0810182527f000000000000000000000000000000000000000000000000000000000000000081527f000000000000000000000000000000000000000000000000000000000000000060208083019190915261ffff7f0000000000000000000000000000000000000000000000000000000000000000168284015260025463ffffffff600160a01b820481166060850152600160c01b9091041660808301528251908101909252600182526000916001600160a01b037f00000000000000000000000000000000000000000000000000000000000000001691639b1c385e9160a08201906106c190610a49565b8152506040518263ffffffff1660e01b81526004016106e09190610d34565b6020604051808303816000875af11580156106ff573d6000803e3d6000fd5b505050506040513d601f19601f820116820180604052508101906107239190610dd2565b600881905591505090565b610736610903565b61073f81610aba565b50565b61074a610903565b6002805463ffffffff909216600160c01b0263ffffffff60c01b19909216919091179055565b6003818154811061078057600080fd5b600091825260209091200154905081565b6009546001600160a01b031633146107a857600080fd5b60006107b2610958565b600090815260066020908152604080832080546001600160a01b0319166001600160a01b0396909616959095179094556007905291909120805460ff1916600117905550565b6000828152600560209081526040909120825161081792840190610b63565b506000828152600660209081526040808320546007909252909120546001600160a01b039091169060ff16156108815760405162461bcd60e51b815260206004820152600f60248201526e1b9bdd081a5b5c1b195b595b9d1959608a1b6044820152606401610325565b806001600160a01b031663da874665836000815181106108a3576108a3610deb565b602002602001015160001b6040518263ffffffff1660e01b81526004016108cc91815260200190565b600060405180830381600087803b1580156108e657600080fd5b505af11580156108fa573d6000803e3d6000fd5b50505050505050565b6000546001600160a01b031633146109565760405162461bcd60e51b815260206004820152601660248201527527b7363c9031b0b63630b1363290313c9037bbb732b960511b6044820152606401610325565b565b6040805160c0810182527f000000000000000000000000000000000000000000000000000000000000000081527f000000000000000000000000000000000000000000000000000000000000000060208083019190915261ffff7f0000000000000000000000000000000000000000000000000000000000000000168284015260025463ffffffff600160a01b820481166060850152600160c01b90910416608083015282519081019092526001825260009182916001600160a01b037f00000000000000000000000000000000000000000000000000000000000000001691639b1c385e919060a08201906106c1905b60607f92fd13387c7fe7befbc38d303d6468778fb9731bc4583f17d92989c6fcfdeaaa82604051602401610a8291511515815260200190565b60408051601f198184030181529190526020810180516001600160e01b03166001600160e01b03199093169290921790915292915050565b336001600160a01b03821603610b125760405162461bcd60e51b815260206004820152601760248201527f43616e6e6f74207472616e7366657220746f2073656c660000000000000000006044820152606401610325565b600180546001600160a01b0319166001600160a01b0383811691821790925560008054604051929316917fed8889f560326eb138920d842192f0eb3dd22b4f139c87a2c57538e05bae12789190a350565b828054828255906000526020600020908101928215610b9e579160200282015b82811115610b9e578251825591602001919060010190610b83565b50610baa929150610bae565b5090565b5b80821115610baa5760008155600101610baf565b634e487b7160e01b600052604160045260246000fd5b60008060408385031215610bec57600080fd5b8235915060208084013567ffffffffffffffff80821115610c0c57600080fd5b818601915086601f830112610c2057600080fd5b813581811115610c3257610c32610bc3565b8060051b604051601f19603f83011681018181108582111715610c5757610c57610bc3565b604052918252848201925083810185019189831115610c7557600080fd5b938501935b82851015610c9357843584529385019392850192610c7a565b8096505050505050509250929050565b600060208284031215610cb557600080fd5b81356001600160a01b0381168114610ccc57600080fd5b9392505050565b60008060408385031215610ce657600080fd5b50508035926020909101359150565b600060208284031215610d0757600080fd5b5035919050565b600060208284031215610d2057600080fd5b813563ffffffff81168114610ccc57600080fd5b60006020808352835160208401526020840151604084015261ffff6040850151166060840152606084015163ffffffff80821660808601528060808701511660a0860152505060a084015160c08085015280518060e086015260005b81811015610dad5782810184015186820161010001528301610d90565b506101009250600083828701015282601f19601f830116860101935050505092915050565b600060208284031215610de457600080fd5b5051919050565b634e487b7160e01b600052603260045260246000fdfea2646970667358221220e4bbde6173c5a10c8297d2439b63cf8e5c40bd2cbe3819276e54e9d9d8a2486264736f6c63430008190033","linkReferences":{}},"methodIdentifiers":{"acceptOwnership()":"79ba5097","owner()":"8da5cb5b","rawFulfillRandomWords(uint256,uint256[])":"1fe543e3","requestRandomWords()":"e0c86289","s_keeper()":"159ed217","s_numWords()":"967dd780","s_randomWords(uint256)":"f6eaffc8","s_requestId()":"e89e106a","s_requestIdToIsMany(uint256)":"9702546d","s_requestIdToKiln(uint256)":"ce897d40","s_requestIdToRandomWords(uint256,uint256)":"77a60e05","s_vrfCoordinator()":"9eccacf6","setCallbackGasLimit(uint32)":"a4eb718c","setCoordinator(address)":"8ea98117","setKeeper(address)":"748747e6","setNumWords(uint32)":"f30c07d3","transferOwnership(address)":"f2fde38b","upKeep(address)":"a9d52368","upKeepMany(address)":"fa31d609"},"id":59}