{
  "abi": [
    {
      "inputs": [
        {
          "internalType": "address",
          "name": "_yt",
          "type": "address"
        },
        {
          "internalType": "uint256",
          "name": "_roundId",
          "type": "uint256"
        }
      ],
      "stateMutability": "nonpayable",
      "type": "constructor"
    },
    {
      "inputs": [
        {
          "internalType": "uint256",
          "name": "buyAmount",
          "type": "uint256"
        }
      ],
      "name": "depositYT",
      "outputs": [],
      "stateMutability": "nonpayable",
      "type": "function"
    },
    {
      "inputs": [],
      "name": "increment",
      "outputs": [],
      "stateMutability": "nonpayable",
      "type": "function"
    },
    {
      "inputs": [],
      "name": "ticket",
      "outputs": [
        {
          "internalType": "contract Ticket",
          "name": "",
          "type": "address"
        }
      ],
      "stateMutability": "view",
      "type": "function"
    },
    {
      "inputs": [
        {
          "internalType": "address",
          "name": "user",
          "type": "address"
        }
      ],
      "name": "userYtDeposited",
      "outputs": [
        {
          "internalType": "uint256",
          "name": "ytDeposited",
          "type": "uint256"
        }
      ],
      "stateMutability": "view",
      "type": "function"
    },
    {
      "inputs": [],
      "name": "yt",
      "outputs": [
        {
          "internalType": "contract IPYieldTokenV2",
          "name": "",
          "type": "address"
        }
      ],
      "stateMutability": "view",
      "type": "function"
    }
  ],
  "bytecode": {
    "object": "0x608060405234801561001057600080fd5b5060405161192638038061192683398101604081905261002f91610274565b600080546001600160a01b0319166001600160a01b038416178155610053826100f2565b90508060405160200161006691906102d2565b604051602081830303815290604052816040516020016100869190610308565b6040516020818303038152906040526040516100a190610267565b6100ac92919061035e565b604051809103906000f0801580156100c8573d6000803e3d6000fd5b50600180546001600160a01b0319166001600160a01b0392909216919091179055506103a2915050565b606060006100ff83610184565b60010190506000816001600160401b0381111561011e5761011e61038c565b6040519080825280601f01601f191660200182016040528015610148576020820181803683370190505b5090508181016020015b600019016f181899199a1a9b1b9c1cb0b131b232b360811b600a86061a8153600a850494508461015257509392505050565b6000807a184f03e93ff9f4daa797ed6e38ed64bf6a1f01000000000000000083106101cd577a184f03e93ff9f4daa797ed6e38ed64bf6a1f010000000000000000830492506040015b6d04ee2d6d415b85acef810000000083106101f9576d04ee2d6d415b85acef8100000000830492506020015b662386f26fc10000831061021757662386f26fc10000830492506010015b6305f5e100831061022f576305f5e100830492506008015b612710831061024357612710830492506004015b60648310610255576064830492506002015b600a8310610261576001015b92915050565b6112b08061067683390190565b6000806040838503121561028757600080fd5b82516001600160a01b038116811461029e57600080fd5b6020939093015192949293505050565b60005b838110156102c95781810151838201526020016102b1565b50506000910152565b6d02837ba3a32b93c902937bab732160951b8152600082516102fb81600e8501602087016102ae565b91909101600e0192915050565b61282960f11b8152600082516103258160028501602087016102ae565b9190910160020192915050565b6000815180845261034a8160208601602086016102ae565b601f01601f19169290920160200192915050565b6040815260006103716040830185610332565b82810360208401526103838185610332565b95945050505050565b634e487b7160e01b600052604160045260246000fd5b6102c5806103b16000396000f3fe608060405234801561001057600080fd5b50600436106100575760003560e01c80631fac47c71461005c5780636cc25db71461008f578063a2874172146100ba578063c5440570146100cf578063d09de08a146100cd575b600080fd5b61007c61006a3660046101b6565b60026020526000908152604090205481565b6040519081526020015b60405180910390f35b6001546100a2906001600160a01b031681565b6040516001600160a01b039091168152602001610086565b6100cd6100c83660046101e6565b6100e2565b005b6000546100a2906001600160a01b031681565b6000546003546001600160a01b03909116906323b872dd9033903090678ac7230489e80000906101129087610215565b61011c9190610232565b6040516001600160e01b031960e086901b1681526001600160a01b03938416600482015292909116602483015260448201526064016020604051808303816000875af1158015610170573d6000803e3d6000fd5b505050506040513d601f19601f820116820180604052508101906101949190610254565b5060005b818110156101b257806101aa81610276565b915050610198565b5050565b6000602082840312156101c857600080fd5b81356001600160a01b03811681146101df57600080fd5b9392505050565b6000602082840312156101f857600080fd5b5035919050565b634e487b7160e01b600052601160045260246000fd5b808202811582820484141761022c5761022c6101ff565b92915050565b60008261024f57634e487b7160e01b600052601260045260246000fd5b500490565b60006020828403121561026657600080fd5b815180151581146101df57600080fd5b600060018201610288576102886101ff565b506001019056fea26469706673582212200cfa6c25280c3a7bd067b96816de546ab90f47e054dcdb9543bf9bd67d13155364736f6c6343000815003360806040523480156200001157600080fd5b50604051620012b0380380620012b0833981016040819052620000349162000136565b818160006200004483826200022f565b5060016200005382826200022f565b5050600680546001600160a01b0319163317905550620002fb915050565b634e487b7160e01b600052604160045260246000fd5b600082601f8301126200009957600080fd5b81516001600160401b0380821115620000b657620000b662000071565b604051601f8301601f19908116603f01168101908282118183101715620000e157620000e162000071565b81604052838152602092508683858801011115620000fe57600080fd5b600091505b8382101562000122578582018301518183018401529082019062000103565b600093810190920192909252949350505050565b600080604083850312156200014a57600080fd5b82516001600160401b03808211156200016257600080fd5b620001708683870162000087565b935060208501519150808211156200018757600080fd5b50620001968582860162000087565b9150509250929050565b600181811c90821680620001b557607f821691505b602082108103620001d657634e487b7160e01b600052602260045260246000fd5b50919050565b601f8211156200022a57600081815260208120601f850160051c81016020861015620002055750805b601f850160051c820191505b81811015620002265782815560010162000211565b5050505b505050565b81516001600160401b038111156200024b576200024b62000071565b62000263816200025c8454620001a0565b84620001dc565b602080601f8311600181146200029b5760008415620002825750858301515b600019600386901b1c1916600185901b17855562000226565b600085815260208120601f198616915b82811015620002cc57888601518255948401946001909101908401620002ab565b5085821015620002eb5787850151600019600388901b60f8161c191681555b5050505050600190811b01905550565b610fa5806200030b6000396000f3fe608060405234801561001057600080fd5b50600436106100ea5760003560e01c80636352211e1161008c578063a22cb46511610066578063a22cb465146101e1578063b88d4fde146101f4578063c87b56dd14610207578063e985e9c51461021a57600080fd5b80636352211e146101a557806370a08231146101b857806395d89b41146101d957600080fd5b8063095ea7b3116100c8578063095ea7b31461015757806323b872dd1461016c57806340c10f191461017f57806342842e0e1461019257600080fd5b806301ffc9a7146100ef57806306fdde0314610117578063081812fc1461012c575b600080fd5b6101026100fd366004610c15565b61022d565b60405190151581526020015b60405180910390f35b61011f61027f565b60405161010e9190610c82565b61013f61013a366004610c95565b610311565b6040516001600160a01b03909116815260200161010e565b61016a610165366004610cca565b61033a565b005b61016a61017a366004610cf4565b610349565b61016a61018d366004610cca565b6103d9565b61016a6101a0366004610cf4565b61040e565b61013f6101b3366004610c95565b61042e565b6101cb6101c6366004610d30565b610439565b60405190815260200161010e565b61011f610481565b61016a6101ef366004610d4b565b610490565b61016a610202366004610d9d565b61049b565b61011f610215366004610c95565b6104b2565b610102610228366004610e79565b610527565b60006001600160e01b031982166380ac58cd60e01b148061025e57506001600160e01b03198216635b5e139f60e01b145b8061027957506301ffc9a760e01b6001600160e01b03198316145b92915050565b60606000805461028e90610eac565b80601f01602080910402602001604051908101604052809291908181526020018280546102ba90610eac565b80156103075780601f106102dc57610100808354040283529160200191610307565b820191906000526020600020905b8154815290600101906020018083116102ea57829003601f168201915b5050505050905090565b600061031c82610555565b506000828152600460205260409020546001600160a01b0316610279565b61034582823361058e565b5050565b6001600160a01b03821661037857604051633250574960e11b8152600060048201526024015b60405180910390fd5b600061038583833361059b565b9050836001600160a01b0316816001600160a01b0316146103d3576040516364283d7b60e01b81526001600160a01b038086166004830152602482018490528216604482015260640161036f565b50505050565b6006546001600160a01b0316331461040457604051632f771b3d60e11b815260040160405180910390fd5b6103458282610694565b6104298383836040518060200160405280600081525061049b565b505050565b600061027982610555565b60006001600160a01b038216610465576040516322718ad960e21b81526000600482015260240161036f565b506001600160a01b031660009081526003602052604090205490565b60606001805461028e90610eac565b6103453383836106f9565b6104a6848484610349565b6103d384848484610798565b60606104bd82610555565b5060006104d560408051602081019091526000815290565b905060008151116104f55760405180602001604052806000815250610520565b806104ff846108c1565b604051602001610510929190610ee6565b6040516020818303038152906040525b9392505050565b6001600160a01b03918216600090815260056020908152604080832093909416825291909152205460ff1690565b6000818152600260205260408120546001600160a01b03168061027957604051637e27328960e01b81526004810184905260240161036f565b6104298383836001610954565b6000828152600260205260408120546001600160a01b03908116908316156105c8576105c8818486610a5a565b6001600160a01b03811615610606576105e5600085600080610954565b6001600160a01b038116600090815260036020526040902080546000190190555b6001600160a01b03851615610635576001600160a01b0385166000908152600360205260409020805460010190555b60008481526002602052604080822080546001600160a01b0319166001600160a01b0389811691821790925591518793918516917fddf252ad1be2c89b69c2b068fc378daa952ba7f163c4a11628f55a4df523b3ef91a4949350505050565b6001600160a01b0382166106be57604051633250574960e11b81526000600482015260240161036f565b60006106cc8383600061059b565b90506001600160a01b03811615610429576040516339e3563760e11b81526000600482015260240161036f565b6001600160a01b03821661072b57604051630b61174360e31b81526001600160a01b038316600482015260240161036f565b6001600160a01b03838116600081815260056020908152604080832094871680845294825291829020805460ff191686151590811790915591519182527f17307eab39ab6107e8899845ad3d59bd9653f200f220920489ca2b5937696c31910160405180910390a3505050565b6001600160a01b0383163b156103d357604051630a85bd0160e11b81526001600160a01b0384169063150b7a02906107da903390889087908790600401610f15565b6020604051808303816000875af1925050508015610815575060408051601f3d908101601f1916820190925261081291810190610f52565b60015b61087e573d808015610843576040519150601f19603f3d011682016040523d82523d6000602084013e610848565b606091505b50805160000361087657604051633250574960e11b81526001600160a01b038516600482015260240161036f565b805181602001fd5b6001600160e01b03198116630a85bd0160e11b146108ba57604051633250574960e11b81526001600160a01b038516600482015260240161036f565b5050505050565b606060006108ce83610abe565b600101905060008167ffffffffffffffff8111156108ee576108ee610d87565b6040519080825280601f01601f191660200182016040528015610918576020820181803683370190505b5090508181016020015b600019016f181899199a1a9b1b9c1cb0b131b232b360811b600a86061a8153600a850494508461092257509392505050565b808061096857506001600160a01b03821615155b15610a2a57600061097884610555565b90506001600160a01b038316158015906109a45750826001600160a01b0316816001600160a01b031614155b80156109b757506109b58184610527565b155b156109e05760405163a9fbf51f60e01b81526001600160a01b038416600482015260240161036f565b8115610a285783856001600160a01b0316826001600160a01b03167f8c5be1e5ebec7d5bd14f71427d1e84f3dd0314c0f7b2291e5b200ac8c7c3b92560405160405180910390a45b505b5050600090815260046020526040902080546001600160a01b0319166001600160a01b0392909216919091179055565b610a65838383610b96565b610429576001600160a01b038316610a9357604051637e27328960e01b81526004810182905260240161036f565b60405163177e802f60e01b81526001600160a01b03831660048201526024810182905260440161036f565b60008072184f03e93ff9f4daa797ed6e38ed64bf6a1f0160401b8310610afd5772184f03e93ff9f4daa797ed6e38ed64bf6a1f0160401b830492506040015b6d04ee2d6d415b85acef81000000008310610b29576d04ee2d6d415b85acef8100000000830492506020015b662386f26fc100008310610b4757662386f26fc10000830492506010015b6305f5e1008310610b5f576305f5e100830492506008015b6127108310610b7357612710830492506004015b60648310610b85576064830492506002015b600a83106102795760010192915050565b60006001600160a01b03831615801590610bf45750826001600160a01b0316846001600160a01b03161480610bd05750610bd08484610527565b80610bf457506000828152600460205260409020546001600160a01b038481169116145b949350505050565b6001600160e01b031981168114610c1257600080fd5b50565b600060208284031215610c2757600080fd5b813561052081610bfc565b60005b83811015610c4d578181015183820152602001610c35565b50506000910152565b60008151808452610c6e816020860160208601610c32565b601f01601f19169290920160200192915050565b6020815260006105206020830184610c56565b600060208284031215610ca757600080fd5b5035919050565b80356001600160a01b0381168114610cc557600080fd5b919050565b60008060408385031215610cdd57600080fd5b610ce683610cae565b946020939093013593505050565b600080600060608486031215610d0957600080fd5b610d1284610cae565b9250610d2060208501610cae565b9150604084013590509250925092565b600060208284031215610d4257600080fd5b61052082610cae565b60008060408385031215610d5e57600080fd5b610d6783610cae565b915060208301358015158114610d7c57600080fd5b809150509250929050565b634e487b7160e01b600052604160045260246000fd5b60008060008060808587031215610db357600080fd5b610dbc85610cae565b9350610dca60208601610cae565b925060408501359150606085013567ffffffffffffffff80821115610dee57600080fd5b818701915087601f830112610e0257600080fd5b813581811115610e1457610e14610d87565b604051601f8201601f19908116603f01168101908382118183101715610e3c57610e3c610d87565b816040528281528a6020848701011115610e5557600080fd5b82602086016020830137600060208483010152809550505050505092959194509250565b60008060408385031215610e8c57600080fd5b610e9583610cae565b9150610ea360208401610cae565b90509250929050565b600181811c90821680610ec057607f821691505b602082108103610ee057634e487b7160e01b600052602260045260246000fd5b50919050565b60008351610ef8818460208801610c32565b835190830190610f0c818360208801610c32565b01949350505050565b6001600160a01b0385811682528416602082015260408101839052608060608201819052600090610f4890830184610c56565b9695505050505050565b600060208284031215610f6457600080fd5b815161052081610bfc56fea2646970667358221220e470de2f31a73b0003d2ce35ac1f23770d8e39e2be44a30144d98f0300e9ed4864736f6c63430008150033",
    "linkReferences": {}
  },
  "methodIdentifiers": {
    "depositYT(uint256)": "a2874172",
    "increment()": "d09de08a",
    "ticket()": "6cc25db7",
    "userYtDeposited(address)": "1fac47c7",
    "yt()": "c5440570"
  },
  "id": 16
}