{"abi":[{"type":"constructor","inputs":[{"name":"_expiry","type":"uint256","internalType":"uint256"},{"name":"_rewardTokens","type":"address[]","internalType":"address[]"},{"name":"_SY","type":"address","internalType":"address"},{"name":"_initialSupply","type":"uint256","internalType":"uint256"},{"name":"_name","type":"string","internalType":"string"},{"name":"_symbol","type":"string","internalType":"string"}],"stateMutability":"nonpayable"},{"type":"function","name":"SY","inputs":[],"outputs":[{"name":"","type":"address","internalType":"address"}],"stateMutability":"view"},{"type":"function","name":"allowance","inputs":[{"name":"owner","type":"address","internalType":"address"},{"name":"spender","type":"address","internalType":"address"}],"outputs":[{"name":"","type":"uint256","internalType":"uint256"}],"stateMutability":"view"},{"type":"function","name":"approve","inputs":[{"name":"spender","type":"address","internalType":"address"},{"name":"value","type":"uint256","internalType":"uint256"}],"outputs":[{"name":"","type":"bool","internalType":"bool"}],"stateMutability":"nonpayable"},{"type":"function","name":"balanceOf","inputs":[{"name":"account","type":"address","internalType":"address"}],"outputs":[{"name":"","type":"uint256","internalType":"uint256"}],"stateMutability":"view"},{"type":"function","name":"decimals","inputs":[],"outputs":[{"name":"","type":"uint8","internalType":"uint8"}],"stateMutability":"view"},{"type":"function","name":"expiry","inputs":[],"outputs":[{"name":"","type":"uint256","internalType":"uint256"}],"stateMutability":"view"},{"type":"function","name":"getRewardTokens","inputs":[],"outputs":[{"name":"","type":"address[]","internalType":"address[]"}],"stateMutability":"view"},{"type":"function","name":"name","inputs":[],"outputs":[{"name":"","type":"string","internalType":"string"}],"stateMutability":"view"},{"type":"function","name":"redeemDueInterestAndRewards","inputs":[{"name":"user","type":"address","internalType":"address"},{"name":"","type":"bool","internalType":"bool"},{"name":"","type":"bool","internalType":"bool"}],"outputs":[{"name":"interestOut","type":"uint256","internalType":"uint256"},{"name":"rewardsOut","type":"uint256[]","internalType":"uint256[]"}],"stateMutability":"nonpayable"},{"type":"function","name":"rewardTokens","inputs":[{"name":"","type":"uint256","internalType":"uint256"}],"outputs":[{"name":"","type":"address","internalType":"address"}],"stateMutability":"view"},{"type":"function","name":"rewards","inputs":[{"name":"","type":"uint256","internalType":"uint256"}],"outputs":[{"name":"","type":"uint256","internalType":"uint256"}],"stateMutability":"view"},{"type":"function","name":"setRewards","inputs":[{"name":"_rewards","type":"uint256[]","internalType":"uint256[]"}],"outputs":[],"stateMutability":"nonpayable"},{"type":"function","name":"symbol","inputs":[],"outputs":[{"name":"","type":"string","internalType":"string"}],"stateMutability":"view"},{"type":"function","name":"totalSupply","inputs":[],"outputs":[{"name":"","type":"uint256","internalType":"uint256"}],"stateMutability":"view"},{"type":"function","name":"transfer","inputs":[{"name":"to","type":"address","internalType":"address"},{"name":"value","type":"uint256","internalType":"uint256"}],"outputs":[{"name":"","type":"bool","internalType":"bool"}],"stateMutability":"nonpayable"},{"type":"function","name":"transferFrom","inputs":[{"name":"from","type":"address","internalType":"address"},{"name":"to","type":"address","internalType":"address"},{"name":"value","type":"uint256","internalType":"uint256"}],"outputs":[{"name":"","type":"bool","internalType":"bool"}],"stateMutability":"nonpayable"},{"type":"event","name":"Approval","inputs":[{"name":"owner","type":"address","indexed":true,"internalType":"address"},{"name":"spender","type":"address","indexed":true,"internalType":"address"},{"name":"value","type":"uint256","indexed":false,"internalType":"uint256"}],"anonymous":false},{"type":"event","name":"Transfer","inputs":[{"name":"from","type":"address","indexed":true,"internalType":"address"},{"name":"to","type":"address","indexed":true,"internalType":"address"},{"name":"value","type":"uint256","indexed":false,"internalType":"uint256"}],"anonymous":false},{"type":"error","name":"ERC20InsufficientAllowance","inputs":[{"name":"spender","type":"address","internalType":"address"},{"name":"allowance","type":"uint256","internalType":"uint256"},{"name":"needed","type":"uint256","internalType":"uint256"}]},{"type":"error","name":"ERC20InsufficientBalance","inputs":[{"name":"sender","type":"address","internalType":"address"},{"name":"balance","type":"uint256","internalType":"uint256"},{"name":"needed","type":"uint256","internalType":"uint256"}]},{"type":"error","name":"ERC20InvalidApprover","inputs":[{"name":"approver","type":"address","internalType":"address"}]},{"type":"error","name":"ERC20InvalidReceiver","inputs":[{"name":"receiver","type":"address","internalType":"address"}]},{"type":"error","name":"ERC20InvalidSender","inputs":[{"name":"sender","type":"address","internalType":"address"}]},{"type":"error","name":"ERC20InvalidSpender","inputs":[{"name":"spender","type":"address","internalType":"address"}]}],"bytecode":{"object":"0x60806040523480156200001157600080fd5b50604051620013253803806200132583398101604081905262000034916200038d565b818160036200004483826200054b565b5060046200005382826200054b565b505050600586905584516200007090600690602088019062000219565b50600880546001600160a01b0319166001600160a01b038616179055620000983384620000a4565b5050505050506200063f565b6001600160a01b038216620000d45760405163ec442f0560e01b8152600060048201526024015b60405180910390fd5b620000e260008383620000e6565b5050565b6001600160a01b0383166200011557806002600082825462000109919062000617565b90915550620001899050565b6001600160a01b038316600090815260208190526040902054818110156200016a5760405163391434e360e21b81526001600160a01b03851660048201526024810182905260448101839052606401620000cb565b6001600160a01b03841660009081526020819052604090209082900390555b6001600160a01b038216620001a757600280548290039055620001c6565b6001600160a01b03821660009081526020819052604090208054820190555b816001600160a01b0316836001600160a01b03167fddf252ad1be2c89b69c2b068fc378daa952ba7f163c4a11628f55a4df523b3ef836040516200020c91815260200190565b60405180910390a3505050565b82805482825590600052602060002090810192821562000271579160200282015b828111156200027157825182546001600160a01b0319166001600160a01b039091161782556020909201916001909101906200023a565b506200027f92915062000283565b5090565b5b808211156200027f576000815560010162000284565b634e487b7160e01b600052604160045260246000fd5b604051601f8201601f191681016001600160401b0381118282101715620002db57620002db6200029a565b604052919050565b80516001600160a01b0381168114620002fb57600080fd5b919050565b600082601f8301126200031257600080fd5b81516001600160401b038111156200032e576200032e6200029a565b602062000344601f8301601f19168201620002b0565b82815285828487010111156200035957600080fd5b60005b83811015620003795785810183015182820184015282016200035c565b506000928101909101919091529392505050565b60008060008060008060c08789031215620003a757600080fd5b8651602080890151919750906001600160401b0380821115620003c957600080fd5b818a0191508a601f830112620003de57600080fd5b815181811115620003f357620003f36200029a565b8060051b62000404858201620002b0565b918252838101850191858101908e8411156200041f57600080fd5b948601945b8386101562000448576200043886620002e3565b8252948601949086019062000424565b9a506200045c9250505060408b01620002e3565b965060608a0151955060808a01519250808311156200047a57600080fd5b620004888b848c0162000300565b945060a08a01519250808311156200049f57600080fd5b5050620004af89828a0162000300565b9150509295509295509295565b600181811c90821680620004d157607f821691505b602082108103620004f257634e487b7160e01b600052602260045260246000fd5b50919050565b601f8211156200054657600081815260208120601f850160051c81016020861015620005215750805b601f850160051c820191505b8181101562000542578281556001016200052d565b5050505b505050565b81516001600160401b038111156200056757620005676200029a565b6200057f81620005788454620004bc565b84620004f8565b602080601f831160018114620005b757600084156200059e5750858301515b600019600386901b1c1916600185901b17855562000542565b600085815260208120601f198616915b82811015620005e857888601518255948401946001909101908401620005c7565b5085821015620006075787850151600019600388901b60f8161c191681555b5050505050600190811b01905550565b808201808211156200063957634e487b7160e01b600052601160045260246000fd5b92915050565b610cd6806200064f6000396000f3fe608060405234801561001057600080fd5b50600436106101005760003560e01c80637d24da4d11610097578063c4f59f9b11610066578063c4f59f9b14610232578063dd62ed3e14610247578063e184c9be14610280578063f301af421461028957600080fd5b80637d24da4d146101e357806395d89b4114610204578063a9059cbb1461020c578063afd27bf51461021f57600080fd5b806323b872dd116100d357806323b872dd1461016d578063313ce5671461018057806370a082311461018f5780637bb7bed1146101b857600080fd5b806306fdde0314610105578063095ea7b31461012357806313d886601461014657806318160ddd1461015b575b600080fd5b61010d61029c565b60405161011a91906108ea565b60405180910390f35b610136610131366004610954565b61032e565b604051901515815260200161011a565b610159610154366004610994565b610348565b005b6002545b60405190815260200161011a565b61013661017b366004610a52565b61035f565b6040516012815260200161011a565b61015f61019d366004610a8e565b6001600160a01b031660009081526020819052604090205490565b6101cb6101c6366004610ab0565b610383565b6040516001600160a01b03909116815260200161011a565b6101f66101f1366004610ada565b6103ad565b60405161011a929190610b23565b61010d6104f8565b61013661021a366004610954565b610507565b6008546101cb906001600160a01b031681565b61023a610515565b60405161011a9190610b71565b61015f610255366004610bbe565b6001600160a01b03918216600090815260016020908152604080832093909416825291909152205490565b61015f60055481565b61015f610297366004610ab0565b610576565b6060600380546102ab90610bf1565b80601f01602080910402602001604051908101604052809291908181526020018280546102d790610bf1565b80156103245780601f106102f957610100808354040283529160200191610324565b820191906000526020600020905b81548152906001019060200180831161030757829003601f168201915b5050505050905090565b60003361033c818585610597565b60019150505b92915050565b805161035b90600790602084019061088a565b5050565b60003361036d8582856105a9565b61037885858561062c565b506001949350505050565b6006818154811061039357600080fd5b6000918252602090912001546001600160a01b0316905081565b6000606060005b60065481101561049357600681815481106103d1576103d1610c2b565b600091825260209091200154600780546001600160a01b039092169163a9059cbb9189918590811061040557610405610c2b565b6000918252602090912001546040516001600160e01b031960e085901b1681526001600160a01b03909216600483015260248201526044016020604051808303816000875af115801561045c573d6000803e3d6000fd5b505050506040513d601f19601f820116820180604052508101906104809190610c41565b508061048b81610c74565b9150506103b4565b506000806007808054806020026020016040519081016040528092919081815260200182805480156104e457602002820191906000526020600020905b8154815260200190600101908083116104d0575b505050505090509250925050935093915050565b6060600480546102ab90610bf1565b60003361033c81858561062c565b6060600680548060200260200160405190810160405280929190818152602001828054801561032457602002820191906000526020600020905b81546001600160a01b0316815260019091019060200180831161054f575050505050905090565b6007818154811061058657600080fd5b600091825260209091200154905081565b6105a4838383600161068b565b505050565b6001600160a01b038381166000908152600160209081526040808320938616835292905220546000198114610626578181101561061757604051637dc7a0d960e11b81526001600160a01b038416600482015260248101829052604481018390526064015b60405180910390fd5b6106268484848403600061068b565b50505050565b6001600160a01b03831661065657604051634b637e8f60e11b81526000600482015260240161060e565b6001600160a01b0382166106805760405163ec442f0560e01b81526000600482015260240161060e565b6105a4838383610760565b6001600160a01b0384166106b55760405163e602df0560e01b81526000600482015260240161060e565b6001600160a01b0383166106df57604051634a1406b160e11b81526000600482015260240161060e565b6001600160a01b038085166000908152600160209081526040808320938716835292905220829055801561062657826001600160a01b0316846001600160a01b03167f8c5be1e5ebec7d5bd14f71427d1e84f3dd0314c0f7b2291e5b200ac8c7c3b9258460405161075291815260200190565b60405180910390a350505050565b6001600160a01b03831661078b5780600260008282546107809190610c8d565b909155506107fd9050565b6001600160a01b038316600090815260208190526040902054818110156107de5760405163391434e360e21b81526001600160a01b0385166004820152602481018290526044810183905260640161060e565b6001600160a01b03841660009081526020819052604090209082900390555b6001600160a01b03821661081957600280548290039055610838565b6001600160a01b03821660009081526020819052604090208054820190555b816001600160a01b0316836001600160a01b03167fddf252ad1be2c89b69c2b068fc378daa952ba7f163c4a11628f55a4df523b3ef8360405161087d91815260200190565b60405180910390a3505050565b8280548282559060005260206000209081019282156108c5579160200282015b828111156108c55782518255916020019190600101906108aa565b506108d19291506108d5565b5090565b5b808211156108d157600081556001016108d6565b600060208083528351808285015260005b81811015610917578581018301518582016040015282016108fb565b506000604082860101526040601f19601f8301168501019250505092915050565b80356001600160a01b038116811461094f57600080fd5b919050565b6000806040838503121561096757600080fd5b61097083610938565b946020939093013593505050565b634e487b7160e01b600052604160045260246000fd5b600060208083850312156109a757600080fd5b823567ffffffffffffffff808211156109bf57600080fd5b818501915085601f8301126109d357600080fd5b8135818111156109e5576109e561097e565b8060051b604051601f19603f83011681018181108582111715610a0a57610a0a61097e565b604052918252848201925083810185019188831115610a2857600080fd5b938501935b82851015610a4657843584529385019392850192610a2d565b98975050505050505050565b600080600060608486031215610a6757600080fd5b610a7084610938565b9250610a7e60208501610938565b9150604084013590509250925092565b600060208284031215610aa057600080fd5b610aa982610938565b9392505050565b600060208284031215610ac257600080fd5b5035919050565b8015158114610ad757600080fd5b50565b600080600060608486031215610aef57600080fd5b610af884610938565b92506020840135610b0881610ac9565b91506040840135610b1881610ac9565b809150509250925092565b6000604082018483526020604081850152818551808452606086019150828701935060005b81811015610b6457845183529383019391830191600101610b48565b5090979650505050505050565b6020808252825182820181905260009190848201906040850190845b81811015610bb25783516001600160a01b031683529284019291840191600101610b8d565b50909695505050505050565b60008060408385031215610bd157600080fd5b610bda83610938565b9150610be860208401610938565b90509250929050565b600181811c90821680610c0557607f821691505b602082108103610c2557634e487b7160e01b600052602260045260246000fd5b50919050565b634e487b7160e01b600052603260045260246000fd5b600060208284031215610c5357600080fd5b8151610aa981610ac9565b634e487b7160e01b600052601160045260246000fd5b600060018201610c8657610c86610c5e565b5060010190565b8082018082111561034257610342610c5e56fea2646970667358221220dc099eb509ff5c7c073282a1981621983dd366259e6c69f24eab9f4f5b9aa5e264736f6c63430008150033","linkReferences":{}},"methodIdentifiers":{"SY()":"afd27bf5","allowance(address,address)":"dd62ed3e","approve(address,uint256)":"095ea7b3","balanceOf(address)":"70a08231","decimals()":"313ce567","expiry()":"e184c9be","getRewardTokens()":"c4f59f9b","name()":"06fdde03","redeemDueInterestAndRewards(address,bool,bool)":"7d24da4d","rewardTokens(uint256)":"7bb7bed1","rewards(uint256)":"f301af42","setRewards(uint256[])":"13d88660","symbol()":"95d89b41","totalSupply()":"18160ddd","transfer(address,uint256)":"a9059cbb","transferFrom(address,address,uint256)":"23b872dd"},"id":43}