{"abi":[{"type":"constructor","inputs":[{"name":"_yt","type":"address","internalType":"address"},{"name":"_roundId","type":"uint256","internalType":"uint256"},{"name":"_vrf","type":"address","internalType":"address"},{"name":"_lotteryEnd","type":"uint256","internalType":"uint256"},{"name":"_mintWindowEnd","type":"uint256","internalType":"uint256"},{"name":"_treasuryDivisor","type":"uint256","internalType":"uint256"},{"name":"_treasury","type":"address","internalType":"address"},{"name":"_ticketCost","type":"uint256","internalType":"uint256"}],"stateMutability":"nonpayable"},{"type":"function","name":"approve","inputs":[{"name":"to","type":"address","internalType":"address"},{"name":"tokenId","type":"uint256","internalType":"uint256"}],"outputs":[],"stateMutability":"nonpayable"},{"type":"function","name":"balanceOf","inputs":[{"name":"owner","type":"address","internalType":"address"}],"outputs":[{"name":"","type":"uint256","internalType":"uint256"}],"stateMutability":"view"},{"type":"function","name":"calculateWinner","inputs":[],"outputs":[{"name":"","type":"address","internalType":"address"}],"stateMutability":"view"},{"type":"function","name":"depositYT","inputs":[{"name":"buyAmount","type":"uint256","internalType":"uint256"}],"outputs":[],"stateMutability":"nonpayable"},{"type":"function","name":"getApproved","inputs":[{"name":"tokenId","type":"uint256","internalType":"uint256"}],"outputs":[{"name":"","type":"address","internalType":"address"}],"stateMutability":"view"},{"type":"function","name":"isApprovedForAll","inputs":[{"name":"owner","type":"address","internalType":"address"},{"name":"operator","type":"address","internalType":"address"}],"outputs":[{"name":"","type":"bool","internalType":"bool"}],"stateMutability":"view"},{"type":"function","name":"lotteryEnd","inputs":[],"outputs":[{"name":"","type":"uint256","internalType":"uint256"}],"stateMutability":"view"},{"type":"function","name":"mintWindowEnd","inputs":[],"outputs":[{"name":"","type":"uint256","internalType":"uint256"}],"stateMutability":"view"},{"type":"function","name":"name","inputs":[],"outputs":[{"name":"","type":"string","internalType":"string"}],"stateMutability":"view"},{"type":"function","name":"ownerOf","inputs":[{"name":"tokenId","type":"uint256","internalType":"uint256"}],"outputs":[{"name":"","type":"address","internalType":"address"}],"stateMutability":"view"},{"type":"function","name":"payOutWinner","inputs":[],"outputs":[],"stateMutability":"nonpayable"},{"type":"function","name":"safeTransferFrom","inputs":[{"name":"from","type":"address","internalType":"address"},{"name":"to","type":"address","internalType":"address"},{"name":"tokenId","type":"uint256","internalType":"uint256"}],"outputs":[],"stateMutability":"nonpayable"},{"type":"function","name":"safeTransferFrom","inputs":[{"name":"from","type":"address","internalType":"address"},{"name":"to","type":"address","internalType":"address"},{"name":"tokenId","type":"uint256","internalType":"uint256"},{"name":"data","type":"bytes","internalType":"bytes"}],"outputs":[],"stateMutability":"nonpayable"},{"type":"function","name":"setApprovalForAll","inputs":[{"name":"operator","type":"address","internalType":"address"},{"name":"approved","type":"bool","internalType":"bool"}],"outputs":[],"stateMutability":"nonpayable"},{"type":"function","name":"supportsInterface","inputs":[{"name":"interfaceId","type":"bytes4","internalType":"bytes4"}],"outputs":[{"name":"","type":"bool","internalType":"bool"}],"stateMutability":"view"},{"type":"function","name":"symbol","inputs":[],"outputs":[{"name":"","type":"string","internalType":"string"}],"stateMutability":"view"},{"type":"function","name":"ticketCost","inputs":[],"outputs":[{"name":"","type":"uint256","internalType":"uint256"}],"stateMutability":"view"},{"type":"function","name":"ticketIdCounter","inputs":[],"outputs":[{"name":"","type":"uint256","internalType":"uint256"}],"stateMutability":"view"},{"type":"function","name":"tokenURI","inputs":[{"name":"tokenId","type":"uint256","internalType":"uint256"}],"outputs":[{"name":"","type":"string","internalType":"string"}],"stateMutability":"view"},{"type":"function","name":"transferFrom","inputs":[{"name":"from","type":"address","internalType":"address"},{"name":"to","type":"address","internalType":"address"},{"name":"tokenId","type":"uint256","internalType":"uint256"}],"outputs":[],"stateMutability":"nonpayable"},{"type":"function","name":"treasury","inputs":[],"outputs":[{"name":"","type":"address","internalType":"address"}],"stateMutability":"view"},{"type":"function","name":"treasuryDivisor","inputs":[],"outputs":[{"name":"","type":"uint256","internalType":"uint256"}],"stateMutability":"view"},{"type":"function","name":"userYtDeposited","inputs":[{"name":"user","type":"address","internalType":"address"}],"outputs":[{"name":"ytDeposited","type":"uint256","internalType":"uint256"}],"stateMutability":"view"},{"type":"function","name":"vrf","inputs":[],"outputs":[{"name":"","type":"address","internalType":"address"}],"stateMutability":"view"},{"type":"function","name":"vrfCallback","inputs":[{"name":"randomNumber","type":"bytes32","internalType":"bytes32"}],"outputs":[],"stateMutability":"nonpayable"},{"type":"function","name":"winningNumber","inputs":[],"outputs":[{"name":"","type":"bytes32","internalType":"bytes32"}],"stateMutability":"view"},{"type":"function","name":"yt","inputs":[],"outputs":[{"name":"","type":"address","internalType":"contract IPYieldTokenV2"}],"stateMutability":"view"},{"type":"event","name":"Approval","inputs":[{"name":"owner","type":"address","indexed":true,"internalType":"address"},{"name":"approved","type":"address","indexed":true,"internalType":"address"},{"name":"tokenId","type":"uint256","indexed":true,"internalType":"uint256"}],"anonymous":false},{"type":"event","name":"ApprovalForAll","inputs":[{"name":"owner","type":"address","indexed":true,"internalType":"address"},{"name":"operator","type":"address","indexed":true,"internalType":"address"},{"name":"approved","type":"bool","indexed":false,"internalType":"bool"}],"anonymous":false},{"type":"event","name":"Transfer","inputs":[{"name":"from","type":"address","indexed":true,"internalType":"address"},{"name":"to","type":"address","indexed":true,"internalType":"address"},{"name":"tokenId","type":"uint256","indexed":true,"internalType":"uint256"}],"anonymous":false},{"type":"error","name":"DepositAfterMintWindow","inputs":[]},{"type":"error","name":"ERC721IncorrectOwner","inputs":[{"name":"sender","type":"address","internalType":"address"},{"name":"tokenId","type":"uint256","internalType":"uint256"},{"name":"owner","type":"address","internalType":"address"}]},{"type":"error","name":"ERC721InsufficientApproval","inputs":[{"name":"operator","type":"address","internalType":"address"},{"name":"tokenId","type":"uint256","internalType":"uint256"}]},{"type":"error","name":"ERC721InvalidApprover","inputs":[{"name":"approver","type":"address","internalType":"address"}]},{"type":"error","name":"ERC721InvalidOperator","inputs":[{"name":"operator","type":"address","internalType":"address"}]},{"type":"error","name":"ERC721InvalidOwner","inputs":[{"name":"owner","type":"address","internalType":"address"}]},{"type":"error","name":"ERC721InvalidReceiver","inputs":[{"name":"receiver","type":"address","internalType":"address"}]},{"type":"error","name":"ERC721InvalidSender","inputs":[{"name":"sender","type":"address","internalType":"address"}]},{"type":"error","name":"ERC721NonexistentToken","inputs":[{"name":"tokenId","type":"uint256","internalType":"uint256"}]},{"type":"error","name":"LotteryEndsAfterYtExpiration","inputs":[]},{"type":"error","name":"LotteryNotOver","inputs":[]},{"type":"error","name":"NotVRF","inputs":[{"name":"caller","type":"address","internalType":"address"}]},{"type":"error","name":"WinningNumberNotSet","inputs":[]}],"bytecode":{"object":"0x60806040523480156200001157600080fd5b5060405162001dd838038062001dd883398101604081905262000034916200037f565b6200003f8762000180565b6200004a88620001bb565b60006200005883826200049f565b5060016200006782826200049f565b5050600680546001600160a01b03808c166001600160a01b0319928316811790935560078054918b1691909216179055604080516370c264df60e11b8152905191925063e184c9be9160048083019260209291908290030181865afa158015620000d5573d6000803e3d6000fd5b505050506040513d601f19601f82011682018060405250810190620000fb91906200056b565b600c5411156200011e5760405163fc34d62160e01b815260040160405180910390fd5b600c859055600d54851015620001475760405163fc34d62160e01b815260040160405180910390fd5b600d93909355600e91909155600f80546001600160a01b0319166001600160a01b0390921691909117905560095550620005fc92505050565b606060006200018f83620001df565b905080604051602001620001a49190620005b7565b604051602081830303815290604052915050919050565b60606000620001ca83620001df565b905080604051602001620001a49190620005e3565b60606000620001ee8362000278565b60010190506000816001600160401b03811115620002105762000210620003fa565b6040519080825280601f01601f1916602001820160405280156200023b576020820181803683370190505b5090508181016020015b600019016f181899199a1a9b1b9c1cb0b131b232b360811b600a86061a8153600a85049450846200024557509392505050565b6000807a184f03e93ff9f4daa797ed6e38ed64bf6a1f0100000000000000008310620002c2577a184f03e93ff9f4daa797ed6e38ed64bf6a1f010000000000000000830492506040015b6d04ee2d6d415b85acef81000000008310620002ef576d04ee2d6d415b85acef8100000000830492506020015b662386f26fc1000083106200030e57662386f26fc10000830492506010015b6305f5e100831062000327576305f5e100830492506008015b61271083106200033c57612710830492506004015b606483106200034f576064830492506002015b600a83106200035c576001015b92915050565b80516001600160a01b03811681146200037a57600080fd5b919050565b600080600080600080600080610100898b0312156200039d57600080fd5b620003a88962000362565b975060208901519650620003bf60408a0162000362565b9550606089015194506080890151935060a08901519250620003e460c08a0162000362565b915060e089015190509295985092959890939650565b634e487b7160e01b600052604160045260246000fd5b600181811c908216806200042557607f821691505b6020821081036200044657634e487b7160e01b600052602260045260246000fd5b50919050565b601f8211156200049a57600081815260208120601f850160051c81016020861015620004755750805b601f850160051c820191505b81811015620004965782815560010162000481565b5050505b505050565b81516001600160401b03811115620004bb57620004bb620003fa565b620004d381620004cc845462000410565b846200044c565b602080601f8311600181146200050b5760008415620004f25750858301515b600019600386901b1c1916600185901b17855562000496565b600085815260208120601f198616915b828110156200053c578886015182559484019460019091019084016200051b565b50858210156200055b5787850151600019600388901b60f8161c191681555b5050505050600190811b01905550565b6000602082840312156200057e57600080fd5b5051919050565b6000815160005b81811015620005a857602081850181015186830152016200058c565b50600093019283525090919050565b6d02837ba3a32b93c902937bab732160951b81526000620005dc600e83018462000585565b9392505050565b61282960f11b81526000620005dc600283018462000585565b6117cc806200060c6000396000f3fe608060405234801561001057600080fd5b50600436106101a95760003560e01c806370a08231116100f9578063c544057011610097578063d872a7b511610071578063d872a7b514610367578063da87466514610370578063e985e9c514610383578063ea35e8051461039657600080fd5b8063c544057014610338578063c87b56dd1461034b578063d70fa7de1461035e57600080fd5b80639ea17dcd116100d35780639ea17dcd146102f6578063a22cb465146102ff578063a287417214610312578063b88d4fde1461032557600080fd5b806370a08231146102d25780638802255f146102e557806395d89b41146102ee57600080fd5b80631fac47c71161016657806342842e0e1161014057806342842e0e146102905780634664611e146102a357806361d027b3146102ac5780636352211e146102bf57600080fd5b80631fac47c71461025557806323b872dd1461027557806340147dff1461028857600080fd5b806301ffc9a7146101ae57806306fdde03146101d6578063081812fc146101eb578063095ea7b3146102165780630c9490431461022b5780631eecd9341461023e575b600080fd5b6101c16101bc3660046111d8565b61039e565b60405190151581526020015b60405180910390f35b6101de6103f0565b6040516101cd9190611245565b6101fe6101f9366004611258565b610482565b6040516001600160a01b0390911681526020016101cd565b610229610224366004611286565b6104ab565b005b6007546101fe906001600160a01b031681565b61024760095481565b6040519081526020016101cd565b6102476102633660046112b2565b60086020526000908152604090205481565b6102296102833660046112cf565b6104ba565b61022961054a565b61022961029e3660046112cf565b610829565b610247600b5481565b600f546101fe906001600160a01b031681565b6101fe6102cd366004611258565b610844565b6102476102e03660046112b2565b61084f565b610247600a5481565b6101de610897565b610247600d5481565b61022961030d36600461131e565b6108a6565b610229610320366004611258565b6108b1565b61022961033336600461139e565b6109c1565b6006546101fe906001600160a01b031681565b6101de610359366004611258565b6109d8565b610247600c5481565b610247600e5481565b61022961037e366004611258565b610a4d565b6101c1610391366004611462565b610aa2565b6101fe610ad0565b60006001600160e01b031982166380ac58cd60e01b14806103cf57506001600160e01b03198216635b5e139f60e01b145b806103ea57506301ffc9a760e01b6001600160e01b03198316145b92915050565b6060600080546103ff90611490565b80601f016020809104026020016040519081016040528092919081815260200182805461042b90611490565b80156104785780601f1061044d57610100808354040283529160200191610478565b820191906000526020600020905b81548152906001019060200180831161045b57829003601f168201915b5050505050905090565b600061048d82610b18565b506000828152600460205260409020546001600160a01b03166103ea565b6104b6828233610b51565b5050565b6001600160a01b0382166104e957604051633250574960e11b8152600060048201526024015b60405180910390fd5b60006104f6838333610b5e565b9050836001600160a01b0316816001600160a01b031614610544576040516364283d7b60e01b81526001600160a01b03808616600483015260248201849052821660448201526064016104e0565b50505050565b6000610554610ad0565b90506000600660009054906101000a90046001600160a01b03166001600160a01b031663c4f59f9b6040518163ffffffff1660e01b8152600401600060405180830381865afa1580156105ab573d6000803e3d6000fd5b505050506040513d6000823e601f3d908101601f191682016040526105d391908101906114ee565b600654604051637d24da4d60e01b815230600482015260016024820181905260448201529192506001600160a01b031690637d24da4d906064016000604051808303816000875af115801561062c573d6000803e3d6000fd5b505050506040513d6000823e601f3d908101601f19168201604052610654919081019061158d565b505060005b81518110156108245760008282815181106106765761067661162a565b60209081029190910101516040516370a0823160e01b81523060048201526001600160a01b03909116906370a0823190602401602060405180830381865afa1580156106c6573d6000803e3d6000fd5b505050506040513d601f19601f820116820180604052508101906106ea9190611640565b90506000600e54826106fc9190611685565b9050600061070a8284611699565b905084848151811061071e5761071e61162a565b6020908102919091010151600f5460405163a9059cbb60e01b81526001600160a01b0391821660048201526024810185905291169063a9059cbb90604401600060405180830381600087803b15801561077657600080fd5b505af115801561078a573d6000803e3d6000fd5b505050508484815181106107a0576107a061162a565b602090810291909101015160405163a9059cbb60e01b81526001600160a01b038881166004830152602482018490529091169063a9059cbb90604401600060405180830381600087803b1580156107f657600080fd5b505af115801561080a573d6000803e3d6000fd5b50505050505050808061081c906116ac565b915050610659565b505050565b610824838383604051806020016040528060008152506109c1565b60006103ea82610b18565b60006001600160a01b03821661087b576040516322718ad960e21b8152600060048201526024016104e0565b506001600160a01b031660009081526003602052604090205490565b6060600180546103ff90611490565b6104b6338383610c57565b600d544211156108d457604051631ec843f760e31b815260040160405180910390fd5b600a5460005b82811015610909576108f733836108f0816116ac565b9450610cf6565b80610901816116ac565b9150506108da565b50600a8190556006546009546001600160a01b03909116906323b872dd9033903090678ac7230489e800009061093f90886116c5565b6109499190611685565b6040516001600160e01b031960e086901b1681526001600160a01b03938416600482015292909116602483015260448201526064016020604051808303816000875af115801561099d573d6000803e3d6000fd5b505050506040513d601f19601f8201168201806040525081019061082491906116dc565b6109cc8484846104ba565b61054484848484610d5b565b60606109e382610b18565b5060006109fb60408051602081019091526000815290565b90506000815111610a1b5760405180602001604052806000815250610a46565b80610a2584610e84565b604051602001610a369291906116f9565b6040516020818303038152906040525b9392505050565b6007546001600160a01b03163314610a7a576040516392e1b81b60e01b81523360048201526024016104e0565b600c54421015610a9d576040516344575dcf60e01b815260040160405180910390fd5b600b55565b6001600160a01b03918216600090815260056020908152604080832093909416825291909152205460ff1690565b600b546000908103610af557604051632ee6185360e11b815260040160405180910390fd5b600a54600b54600091610b0791611728565b9050610b1281610844565b91505090565b6000818152600260205260408120546001600160a01b0316806103ea57604051637e27328960e01b8152600481018490526024016104e0565b6108248383836001610f17565b6000828152600260205260408120546001600160a01b0390811690831615610b8b57610b8b81848661101d565b6001600160a01b03811615610bc957610ba8600085600080610f17565b6001600160a01b038116600090815260036020526040902080546000190190555b6001600160a01b03851615610bf8576001600160a01b0385166000908152600360205260409020805460010190555b60008481526002602052604080822080546001600160a01b0319166001600160a01b0389811691821790925591518793918516917fddf252ad1be2c89b69c2b068fc378daa952ba7f163c4a11628f55a4df523b3ef91a4949350505050565b6001600160a01b038216610c8957604051630b61174360e31b81526001600160a01b03831660048201526024016104e0565b6001600160a01b03838116600081815260056020908152604080832094871680845294825291829020805460ff191686151590811790915591519182527f17307eab39ab6107e8899845ad3d59bd9653f200f220920489ca2b5937696c31910160405180910390a3505050565b6001600160a01b038216610d2057604051633250574960e11b8152600060048201526024016104e0565b6000610d2e83836000610b5e565b90506001600160a01b03811615610824576040516339e3563760e11b8152600060048201526024016104e0565b6001600160a01b0383163b1561054457604051630a85bd0160e11b81526001600160a01b0384169063150b7a0290610d9d90339088908790879060040161173c565b6020604051808303816000875af1925050508015610dd8575060408051601f3d908101601f19168201909252610dd591810190611779565b60015b610e41573d808015610e06576040519150601f19603f3d011682016040523d82523d6000602084013e610e0b565b606091505b508051600003610e3957604051633250574960e11b81526001600160a01b03851660048201526024016104e0565b805181602001fd5b6001600160e01b03198116630a85bd0160e11b14610e7d57604051633250574960e11b81526001600160a01b03851660048201526024016104e0565b5050505050565b60606000610e9183611081565b600101905060008167ffffffffffffffff811115610eb157610eb1611357565b6040519080825280601f01601f191660200182016040528015610edb576020820181803683370190505b5090508181016020015b600019016f181899199a1a9b1b9c1cb0b131b232b360811b600a86061a8153600a8504945084610ee557509392505050565b8080610f2b57506001600160a01b03821615155b15610fed576000610f3b84610b18565b90506001600160a01b03831615801590610f675750826001600160a01b0316816001600160a01b031614155b8015610f7a5750610f788184610aa2565b155b15610fa35760405163a9fbf51f60e01b81526001600160a01b03841660048201526024016104e0565b8115610feb5783856001600160a01b0316826001600160a01b03167f8c5be1e5ebec7d5bd14f71427d1e84f3dd0314c0f7b2291e5b200ac8c7c3b92560405160405180910390a45b505b5050600090815260046020526040902080546001600160a01b0319166001600160a01b0392909216919091179055565b611028838383611159565b610824576001600160a01b03831661105657604051637e27328960e01b8152600481018290526024016104e0565b60405163177e802f60e01b81526001600160a01b0383166004820152602481018290526044016104e0565b60008072184f03e93ff9f4daa797ed6e38ed64bf6a1f0160401b83106110c05772184f03e93ff9f4daa797ed6e38ed64bf6a1f0160401b830492506040015b6d04ee2d6d415b85acef810000000083106110ec576d04ee2d6d415b85acef8100000000830492506020015b662386f26fc10000831061110a57662386f26fc10000830492506010015b6305f5e1008310611122576305f5e100830492506008015b612710831061113657612710830492506004015b60648310611148576064830492506002015b600a83106103ea5760010192915050565b60006001600160a01b038316158015906111b75750826001600160a01b0316846001600160a01b0316148061119357506111938484610aa2565b806111b757506000828152600460205260409020546001600160a01b038481169116145b949350505050565b6001600160e01b0319811681146111d557600080fd5b50565b6000602082840312156111ea57600080fd5b8135610a46816111bf565b60005b838110156112105781810151838201526020016111f8565b50506000910152565b600081518084526112318160208601602086016111f5565b601f01601f19169290920160200192915050565b602081526000610a466020830184611219565b60006020828403121561126a57600080fd5b5035919050565b6001600160a01b03811681146111d557600080fd5b6000806040838503121561129957600080fd5b82356112a481611271565b946020939093013593505050565b6000602082840312156112c457600080fd5b8135610a4681611271565b6000806000606084860312156112e457600080fd5b83356112ef81611271565b925060208401356112ff81611271565b929592945050506040919091013590565b80151581146111d557600080fd5b6000806040838503121561133157600080fd5b823561133c81611271565b9150602083013561134c81611310565b809150509250929050565b634e487b7160e01b600052604160045260246000fd5b604051601f8201601f1916810167ffffffffffffffff8111828210171561139657611396611357565b604052919050565b600080600080608085870312156113b457600080fd5b84356113bf81611271565b93506020858101356113d081611271565b935060408601359250606086013567ffffffffffffffff808211156113f457600080fd5b818801915088601f83011261140857600080fd5b81358181111561141a5761141a611357565b61142c601f8201601f1916850161136d565b9150808252898482850101111561144257600080fd5b808484018584013760008482840101525080935050505092959194509250565b6000806040838503121561147557600080fd5b823561148081611271565b9150602083013561134c81611271565b600181811c908216806114a457607f821691505b6020821081036114c457634e487b7160e01b600052602260045260246000fd5b50919050565b600067ffffffffffffffff8211156114e4576114e4611357565b5060051b60200190565b6000602080838503121561150157600080fd5b825167ffffffffffffffff81111561151857600080fd5b8301601f8101851361152957600080fd5b805161153c611537826114ca565b61136d565b81815260059190911b8201830190838101908783111561155b57600080fd5b928401925b8284101561158257835161157381611271565b82529284019290840190611560565b979650505050505050565b600080604083850312156115a057600080fd5b8251915060208084015167ffffffffffffffff8111156115bf57600080fd5b8401601f810186136115d057600080fd5b80516115de611537826114ca565b81815260059190911b820183019083810190888311156115fd57600080fd5b928401925b8284101561161b57835182529284019290840190611602565b80955050505050509250929050565b634e487b7160e01b600052603260045260246000fd5b60006020828403121561165257600080fd5b5051919050565b634e487b7160e01b600052601260045260246000fd5b634e487b7160e01b600052601160045260246000fd5b60008261169457611694611659565b500490565b818103818111156103ea576103ea61166f565b6000600182016116be576116be61166f565b5060010190565b80820281158282048414176103ea576103ea61166f565b6000602082840312156116ee57600080fd5b8151610a4681611310565b6000835161170b8184602088016111f5565b83519083019061171f8183602088016111f5565b01949350505050565b60008261173757611737611659565b500690565b6001600160a01b038581168252841660208201526040810183905260806060820181905260009061176f90830184611219565b9695505050505050565b60006020828403121561178b57600080fd5b8151610a46816111bf56fea26469706673582212203c3ec2f5cf79b32d81b827207a9cccd56147bb5b055a06809f66595fd49db92e64736f6c63430008150033","linkReferences":{}},"methodIdentifiers":{"approve(address,uint256)":"095ea7b3","balanceOf(address)":"70a08231","calculateWinner()":"ea35e805","depositYT(uint256)":"a2874172","getApproved(uint256)":"081812fc","isApprovedForAll(address,address)":"e985e9c5","lotteryEnd()":"d70fa7de","mintWindowEnd()":"9ea17dcd","name()":"06fdde03","ownerOf(uint256)":"6352211e","payOutWinner()":"40147dff","safeTransferFrom(address,address,uint256)":"42842e0e","safeTransferFrom(address,address,uint256,bytes)":"b88d4fde","setApprovalForAll(address,bool)":"a22cb465","supportsInterface(bytes4)":"01ffc9a7","symbol()":"95d89b41","ticketCost()":"1eecd934","ticketIdCounter()":"8802255f","tokenURI(uint256)":"c87b56dd","transferFrom(address,address,uint256)":"23b872dd","treasury()":"61d027b3","treasuryDivisor()":"d872a7b5","userYtDeposited(address)":"1fac47c7","vrf()":"0c949043","vrfCallback(bytes32)":"da874665","winningNumber()":"4664611e","yt()":"c5440570"},"id":41}